:02000002B0004C
:1040000000400B001C9E0B00000006000C00050287
:084010000401E50C00000000B2
:044018007C880B0095
:1040200009480A49884208B505D0094A824202D0A7
:10403000121A04F0C7FA0748074A0021121A04F0BE
:10404000CFFA014808BD00BF7CE50320889D0B0026
:10405000E8E50320E8E50320EDE7032070B5074E0F
:10406000074C03F073FBA41BA4080025AC4200D14D
:1040700070BD56F8043B98470135F7E7309D0B00BB
:10408000549D0B0000F090BD08B500F0E5FCBDE8C4
:10409000084003F013BB02F059BA02F057BA02F01D
:1040A0005DBA000008B5034A03490C2002F0A2F9EA
:1040B000FEE700BF75600B0090880B000078B0FA37
:1040C00080F04009704701230370704708B501F084
:1040D000D9FF034B1860BDE8084002F0C7B900BF24
:1040E00028E7032003682BB14268934202D21846A6
:1040F00004F060BA0020704738B50568044645B141
:1041000043689D4205D2284604F0AAFA01300544CE
:104110002560204638BDF8B5044647680D4621B9EC
:1041200003687A1C4260D955F8BD084604F098FA35
:10413000A368461CF2199A42F6D8206832462946EE
:10414000384404F03FFA606830446060ECE70000F7
:1041500038B504460B46D0E901012568044A091A1E
:10416000284402F003FA636801300344636038BDF9
:10417000A5880B0038B504460B46D0E90101256837
:10418000044A091A284402F0F1F963680130034433
:10419000636038BDA8880B0008B50023437700682A
:1041A00003F0EEF8BDE8084001F091BE2DE9F043C0
:1041B0008F188FB0B942CDE905170646894690465B
:1041C00080F0C28005A80D88FFF796FF0368BB4208
:1041D00080F0BA8005980378412B49D1013004F072
:1041E000E9F9052837DDFF2447F276239D4200F0E8
:1041F000D38041D847F261239D4200F0A88047F266
:1042000064239D426BD046F670539D4241D1784D58
:10421000784EDFF8F4810598B84280F095800378F5
:10422000412B4BD1013004F0C5F9052839DDFF24BD
:1042300005A8FFF761FFDDF814902946484604F011
:1042400005FA014600283DD1204603F0EFFA05A803
:10425000FFF752FFDFE70598013004F0ABF90028C3
:10426000C1DB0598013004F0A5F90E30C4B2BBE7FC
:1042700005A8FFF737FFF9E747F264739D424FD077
:1042800047F276739D4200F0978047F261739D423A
:104290006FD00023CDE9013302220092728B1946C0
:1042A0003AE00598013004F085F90028BFDB059855
:1042B000013004F07FF90E30C4B2B9E705A8FFF76A
:1042C00011FFF9E73146484604F0C0F928B14146EC
:1042D000484604F0BBF90028B9D10121B4E70AAB84
:1042E0004549079307A810230025CDE90853FFF798
:1042F00012FF07A82146FFF72BFF204603F0C0FA64
:10430000014607A8FFF736FF089BCDE90155013BA1
:104310000093079B2A461421304600F083FA13E0ED
:1043200005A8FFF7E9FE03689F420DD9A4B2012159
:10433000204603F07BFA05A8FFF7D4FE011E18BF44
:104340000121204603F083FA0FB0BDE8F0830AABE9
:10435000079307A8102329490025CDE90853FFF743
:10436000DAFE07A82146FFF7F3FE204603F09BFA8A
:10437000C6E705A8FFF7C0FE03689F42E4D9A4B2D0
:104380000121204603F052FA05A8FFF7ABFE0146D3
:10439000204603F09FFAD7E720468DF8284001F029
:1043A00097FD03460AA823B1154A934201D09847C6
:1043B000CAE701F08AFDC7E705A8FFF79DFE059B48
:1043C0008DF81C40A3EB0901A8EB01012046CDE9C3
:1043D0000A310C9101F086FD03460AA907A823B112
:1043E000084A934201D09847AEE701F06FFDABE772
:1043F000AC880B00AF880B00B7880B00BA880B00A5
:10440000CB5E0B00CD5E0B00B3880B002DE9F041B5
:104410008CB004AF044605220068391D02F0F7FC99
:1044200098B3052804D000202037BD46BDE8F081B0
:10443000B7F805305BBA9AB2A7F80530B7F807307D
:104440005BBA1FFA83F8A7F80730002AEBD03B7954
:1044500023BB01F038FD0246E060607FB7F807300B
:10446000C0B9B7F80510012914D1092B0FD0C82BFA
:1044700001D0042BD8D1012562612046657700F078
:104480007FFAFFF723FE01F022FD0120CCE7032392
:104490006377C9E7581F18BF0120C5E7B8F5806FDB
:1044A00003D92046FFF778FEEFE708F108036E46D0
:1044B000DB08A6EBC3039D4604AD206842462946AF
:1044C00002F0A5FC80454FF000007FD1B7F807301F
:1044D000E85401F0F8FC3B79E060142B00F0A68072
:1044E00048D80F2B00F0A28007D8022B48D0062B0B
:1044F00051D02046FFF750FE58E0112BF9D1002390
:104500003B70B7F807302B449D42C7E903534DD2A7
:1045100007F10C00D5F80080FFF7EEFDFB68B7F857
:1045200007105D1B4D1BC7E905357B68FD61C3F3B3
:104530000F236383644B984500F0BF8000F28C80AA
:10454000A3F57F236FF400721344984500F09D801B
:1045500079D8A3F50033063B984500F09C8003F51D
:104560000033033398456BD107F11401384601F04D
:10457000ADFC65E0292B1BD0372B17D01D2BB8D1F4
:10458000637F43B901236377204600F0F9F9FFF711
:104590009DFD01F09CFC0023C821B7F80520009187
:1045A000CDE901331946204600F03CF901200DE029
:1045B000A3681BB9402001F0C9FFA060B7F80780CD
:1045C000A8444545C7E9055802D30020B5462BE766
:1045D00029464022A06804F04BF8A368002583F820
:1045E0003F5007F11400FFF787FD036898451BD97A
:1045F000786920B1BB69984214D203F0DFFF85B21D
:10460000206802F0BDFE2368A2685A631D8700235C
:10461000637701F058FCA0F59C500838C4E903000A
:104620006061C3E72846EAE75025E9E77B68B7F809
:104630000720C3F30F23638329462046FFF7B6FD07
:1046400000236383B2E7214B9845F9D107F11401A8
:10465000384601F03BFCF3E71D4B984521D003F1B0
:104660009F6303F5003303F5807398451FD003F172
:104670006E4303F5302303F586739845E0D107F1C7
:104680001401384601F022FCDAE707F1140138463C
:1046900001F01CFCD4E707F11401384601F016FCC8
:1046A000CEE707F11401384601F010FCC8E707F126
:1046B0001401384601F00AFCC2E707F1140138463C
:1046C00001F004FCBCE700BF76667300646267001B
:1046D00061636F6E2DE9F04104468CB00D46FFF723
:1046E000F5FC637F022B1ED0237F628B0133DBB28C
:1046F0002377AAB9022B13D8206802F009FDA8B1CC
:1047000025B9206802F0E2FD00280FDD2046FFF702
:104710007DFE0028F5D1206802F032FE01F0D7FBC3
:10472000237F013B23770CB0BDE8F08101F0CBFB88
:104730000546206802F0ECFC677F012F064624D175
:1047400020B965612046FFF727FDE9E7E3684FF2EE
:104750001862EB1A9342F5D84AF6C872934203D80E
:104760002369EB1A9342DBD9636941F27072EB1A49
:104770009342D5D90023CDE9013300931A4606218F
:10478000204600F04FF86561CAE7002FC8D1636981
:10479000EB1A40B141F270729342C1D9206802F025
:1047A000EFFD6777BCE741F288329342B8D92068C1
:1047B00002F0E6FDD4F800C0DCF834E0BCF8388044
:1047C000BEF1000F1BD0334642467146604602F0F0
:1047D00021FC0128D7D1636805930125184625835C
:1047E00003F03EFF0022CDE90122059B00902A46FE
:1047F0001D21204600F016F82369636190E7084BFD
:1048000006930CF120070FCF07AE0FC63B6833703D
:104810004246734606A9604602F0DCFCD9E700BFB9
:104820002C990B002DE9F04F83B000AF04460068CF
:104830003D6B884616469946EB4602F069FC002817
:104840007FD0B8F11D0F04D84C4B23FA08F3DB07D7
:1048500002D4637F012B74D146B9668B36B9238BA2
:1048600001339BB2002B71D02383268BA8F10C035C
:10487000082B16D8D4E90323934238BF134603F11B
:10488000420A01F020FBAAEB0000002860DB0021B7
:104890002046FFF71FFF01F016FBAAEB00000028DF
:1048A000F5DAB9F1000F5AD06B1D7A6B002ABA6B9A
:1048B00008BF002203EB020A0AF1070323F00703F3
:1048C000ADEB030DBB6BC7F804D0EA18C2F30723A6
:1048D00076BA43EA02238DF80080ADF80160ADF8A6
:1048E0000330B9F1000F3CD0002D3AD02A4649469A
:1048F0000DF1050003F066FE681D7B6B3BB1BB6BE1
:104900002BB11A467B68796B184403F05BFE0025D7
:1049100055452AD2AAEB05027B682068B2F5806F64
:1049200028BF4FF48062591902F0A5FA064600200C
:1049300001F0C7FABEB9206802F022FD667701F0E7
:10494000C6FA0C37DD46BD46BDE8F08F01238BE784
:10495000217F0029A5D12046FFF7BCFEA1E7052352
:10496000A3E70520C9E73544D2E703D02046FFF787
:1049700013FCE6E701F0A7FA2061E2E7450000201A
:1049800000B595B004AB002201934F23009302922F
:10499000034B1121FFF746FF15B05DF804FB00BF84
:1049A00030890B0030B5ADF2244D08AB002405462C
:1049B000059305A84FF48063CDE90643FFF7ABFBF1
:1049C000069B013B0093CDE90144059B22460E2145
:1049D0002846FFF727FF0DF2244D30BD70B52DEDB1
:1049E000028BB0EE408AF0EE608AADF5846D08ABC4
:1049F000002405460E46059305A84FF4806313492D
:104A0000CDE90643FFF787FB314605A8FFF7A0FB7A
:104A1000DDE9063105980E4AC91A8DED008B184460
:104A200001F0A4FD431C069803440693013B009348
:104A3000CDE90144059B224614212846FFF7F2FEEA
:104A40000DF5846DBDEC028B70BD00BFBD880B0001
:104A5000C0880B000000000038B54B484B4D2DEDD1
:104A6000028B01F0BAFA0F2002F01DFFC11703F00C
:104A70006DFA3FA3D3E9002303F09EFA3EA3D3E9E6
:104A8000002303F0C3FB424B002203F0DDF8414B4F
:104A9000002203F091FA41EC180B3B4801F0C0FAF8
:104AA00018B12B7883F001032B70374C204601F0AE
:104AB000ADFAD8B1204600F0A3FE4FF006132361F3
:104AC0000221204600F0E3FC4FF0011332496361FC
:104AD000204601F0A2FF204601F000F92F4830499E
:104AE000FFF760FF41F2883001F068FD264800F0D2
:104AF00087FE2548042100F0CAFC4FF005124FF054
:104B00000113C4E904232C781CB31DA3D3E90023AB
:104B100051EC180B03F050FA224B002203F096F8E8
:104B200041EC180B0221B0EE480AF0EE680A164874
:104B300002F064F8B0EE480AF0EE680A0021174867
:104B4000FFF74CFFBDEC028B0F48BDE8384001F089
:104B5000C5B80221B0EE480AF0EE680A0A4802F031
:104B60004DF8B0EE480AF0EE680A2146E7E700BFCC
:104B70006666666666660A400000000000FEAF409A
:104B8000CDCCCCCCCCCCFC3F44E60320B4E6032017
:104B90000000E03F00005940C6880B00E8E5032014
:104BA000D0880B00000040402DE9F04194B0A223D2
:104BB000AC22A721009302A8EA2301F01DFE03AC5A
:104BC00040F6B83001F07DF90FCC09AF0FC72C4D7E
:104BD00023683B702B4B6B6001F075F9A0F59C507E
:104BE00008380DF1240CC5E903006861BCE80F002A
:104BF0000FAE0FC62C683B6833700FAF41F6907351
:104C000023870FCF4FF00008C4F8348020340FC43E
:104C10003368237044F24F66286802F0B1FB85F8D0
:104C20001D8001F050F904466B7F012B0CD001F080
:104C30004AF9001BB04204D800212846FFF74AFD7C
:104C4000F2E76B7F012BE7D10F4C204601F09CF976
:104C5000204600F0D5FD204601F040F80521204611
:104C600000F015FC00224FF00113C4E9042302F008
:104C70009FFC4FF4165114B0BDE8F04102F08CBC1B
:104C8000E8E5032007890B0044E6032010B50E4C2D
:104C9000204602F0BFFB04F11C0001F069FD0B4B44
:104CA0000021C3E90041C3E90211C3E9041199617C
:104CB000998301206163218701F0BCFBBDE81040AE
:104CC0000348072101F032B908E60320E8E5032094
:104CD00044E603202DE9F04F85B01F46BDF938802A
:104CE000BDF83C30A8EB0209A7EB010AB9F1000FAF
:104CF000B8BFC9F10009BAF1000FB8BFCAF1000A84
:104D0000D14583460C46154604DD3A462C464746B7
:104D10000D469046BC4205DD2A4645469046224651
:104D20003C4617463E1BB2B20092A8EB050282EA4F
:104D3000E271A1EBE271C6F3C03202FA86F6454594
:104D4000B4BF01224FF0FF32019176100292BC42B3
:104D50001CDCDBF800200393D145D2F81880C7BFD4
:104D6000294622462A4621465846C047019A039BB7
:104D7000B61AB1B236B2002E05DA029A1544009A7C
:104D800056182DB236B2013424B2E0E705B0BDE8C2
:104D9000F08F704710B404682469A4465DF8044B92
:104DA000604730B40468BDF808500295A46BA4466F
:104DB00030BC604730B40468BDF808500295E46B1D
:104DC000A44630BC604770B4BDF90C50BDF810600B
:104DD0000468CDE90356246CA44670BC60472DE9F5
:104DE000F3411C460368BDF820805B690546164602
:104DF000013C34440F4624B298472B68CDF8048018
:104E000000949C6A28463B4632463946A0472B68A8
:104E1000DB6A284602B0BDE8F04118472DE9F341AE
:104E20001D460368BDF820805B69044617460E46A0
:104E30009847CDE9007822686B1E3344956A204676
:104E40001BB23A463146A8472368DB6A204602B0C7
:104E5000BDE8F04118472DE9F3471E460368BDF948
:104E600028905B69BDF82C800C460546174698478C
:104E70002644B4422B680BDACDF80080D3F820A08A
:104E800021464B463A4628460134D04724B2F0E743
:104E9000DB6A284602B0BDE8F047184713B5026840
:104EA0000191B0F90E100091146CB0F90C30002291
:104EB0001146A04702B010BD2DE9F74399421646AE
:104EC000BDF92870BDF82C90026880460D461C463E
:104ED00013D1BE42C8BF3346CDF82890C4BF3E466A
:104EE0001F467B1C946B9B1B1BB2324629464046D7
:104EF000A44603B0BDE8F0436047BE420AD19942E0
:104F0000C2BF0B4625461C46631CCDF82890D46BC7
:104F10005B1BE9E753699847CDE90079D8F8003081
:104F200040469F6A324623462946B847D8F80030A3
:104F3000DB6A404603B0BDE8F04318472DE9F3476C
:104F40001D460368BDF82C805B69BDF928900446B6
:104F50000F46164698472368CDF80080D3F824A062
:104F600032462B4639462046D0472368CDF800808C
:104F700009F1FF323244D3F824A039462B462046AB
:104F800012B2D0472368CDF80080D3F820A0324673
:104F90004B4639462046D0476B1ED9192368CDF8B9
:104FA00000801D6A20464B46324609B2A847236856
:104FB000DB6A204602B0BDE8F0471847704701F0B1
:104FC0000303B0F90A208376C907B0F9083059BF46
:104FD0008381C2818281C3817047000030B54281E4
:104FE000C281074A074D0181002481814FF0FF31C2
:104FF000C0E905124460056004610477046230BDB5
:10500000010100018C8E0B002DE9F04F89B0CDE934
:1050100002120268BDF948800493BDF94C30526910
:105020000593BDF850A00446904718F107024FF0D1
:10503000000648BF08F10E024FEAE20B0196354622
:10504000039B019ABDF904109A18059B8B4212B27A
:1050500027DD049B33444FF0000906930FFA89F0D3
:1050600080451FFA89F117DD4F0705BF069BC01069
:105070006D001D5C18BFEDB22B060AD5029B20689F
:1050800007921944836909B21F4620465346B84720
:10509000079A09F10109E1E7019B013301935E449D
:1050A000CEE72368DB6A204609B0BDE8F04F184719
:1050B0002DE9F04F2DED028B91B01646026ABDF836
:1050C00074809DF878509DF87C4003911F46BDF890
:1050D000703004938346002A40F0C580B0F90C304C
:1050E0008B4240F34C81B0F90E30B34240F347811C
:1050F000062313FB0513002B40F3418106EBC40389
:10510000002B40F33C81037F1BB9AF2F84BF0137D5
:10511000FFB2DBF8003058465B69984705220992D8
:1051200000220592984A07EB8703D3180C93B3B279
:105130000693059A0C9B9B5C0793ABB20B93BDF84F
:105140000C300893039B02FB05F919FA83F90FFA57
:1051500089F308EE103A08230A93039B02EB030A33
:105160004FF000090FFA8AFA079ADBF80030D207ED
:1051700052D5012D1FFA89F23ED1012C3CD19B69F9
:1051800006991F46049B0A4412B251465846B84736
:1051900009F101034FFA83F9079B5B0807930A9B08
:1051A000013B13F0FF030A93DED1059F01377BB269
:1051B0000593099B013B13F0FF030993B9D1049BAD
:1051C00043450FD0012DDBF800303BD1012C39D104
:1051D0000899CDF8008005311C6A3246082309B2CF
:1051E0005846A047DBF80030DB6A584611B0BDECEA
:1051F000028BBDE8F04F1847069914FB02F20A44EF
:10520000049901910094DB6918EE101A1F4612B23E
:105210002B465846B847BBE7049A4245B8D0012D03
:105220001FFA89F207D1012C05D19B6906991F4607
:105230000A444346A8E70699CDF8048014FB02F21D
:105240000A44DFE70B9ACDF8048002EB8201089A4A
:10525000E4000A4411460094DC6932462B4609B248
:105260005846A047BEE7137A516812680B92FF1A9E
:10527000FFB201EBC70331F8372006929A78099202
:10528000DA780C92012D93F9052093F906A00A9281
:1052900001D8012C57D9BDF9283008930FFA8AF3A9
:1052A0000793DBF8003058465B699847B3B24FF07C
:1052B00000080E931AFA86F3C14647460F930C9BDB
:1052C0009F428FD2079B0E9A3B4403FB042300228C
:1052D00005920F9A1BB202EB070A08EE103A0FFA7A
:1052E0008AFA4346099A0599914241D25A1CD2B290
:1052F0005B070D9207D1069B06990B9A01339BB26F
:1053000012F80190069319F0800F12D0012DDBF8EE
:105310000030BDF80C101AD1012C18D10A9A9B69E3
:105320001144059A11441E465246049B09B2584640
:10533000B047059E0136F3B24FEA490905935FFA7B
:1053400089F90D9BCEE70023CDE90733A9E705983E
:10535000089A024402FB0511049ACDE90042DB6978
:1053600018EE102A1E4609B22B465846B047E0E711
:10537000099B013798445FFA88F8FFB29FE711B0A4
:10538000BDEC028BBDE8F08F81890B00F0B5026A9D
:1053900085B004460B46002A34D10A2908D1438A35
:1053A0000282427E03EBC2036382012005B0F0BD9E
:1053B0000D29FAD0E17E007E657E71B1B4F91060EE
:1053C000062111FB0061B4F90C60B142C1BFB4F910
:1053D0001210228201EBC5026282E28A0192A28A45
:1053E0000092CDE90205B4F91220B4F9101020465C
:1053F000FFF75EFE237E228A03EB430302EB4303A7
:105400002382D2E70A2907D100230382417E927AC0
:10541000438A01FB0233C7E70D29C6D0157AA9429A
:10542000C3D3517A9942C0D351685D1BEDB201EBF1
:10543000C505A87828B3E97819B3E17E267E677E92
:1054400091B195F905100844B4F9101006FB00114C
:10545000B4F90C00814207DD00202082B4F912105B
:10546000927A02FB07126282E28A0192A28A009279
:10547000CDE90267B4F91220B4F910102046FFF705
:1054800017FE2979227E238A01FB0233B8E701291E
:1054900038BF0121017641767047704710B5102161
:1054A0000446FEF7FCFD204610BD0EB403B503AB69
:1054B000002153F8042B019301F0ABFB02B05DF81F
:1054C00004EB03B07047000073B504460846227928
:1054D000A36832B1A3B90B4902B0BDE8704001F036
:1054E00089BA094A267B094D0949647B012E18BFF8
:1054F0002946CDE900140749FFF7D7FF02B070BD78
:10550000054AEFE7ED8E0B00E48E0B00E98E0B00F1
:10551000E58E0B00038F0B00DC8E0B0010B5044BE7
:1055200003600446C06A08B101F018F8204610BDB7
:10553000DC930B0010B50446FFF7F0FF2046502126
:10554000FEF7ADFD204610BD002910B54BDBB0F9CC
:105550000C408C4247DD002A45DBB0F90E409442F6
:1055600041DD847E022C1FD0032C26D0012C04D1D7
:105570000489D24314440A4621B2012B23D0022BC2
:1055800032D083BB002A13460489C06AB8BFD31D3A
:10559000DB1013FB041102F0070201239340425C6D
:1055A00022EA030242541EE00489013C611A448944
:1055B000D243224409B212B2DFE74489013C641AA3
:1055C000114622B2D9E7002A04891346B8BFD31D79
:1055D000DB1013FB0411C36A02F0070001228240B2
:1055E000585C02435A5410BD002A13460489C06A0D
:1055F000B8BFD31DDB1013FB041102F00702012317
:1056000003FA02F2435C5A40CCE7000070B504464E
:105610001D460026FFF7E2FC114B2360666215B9B8
:1056200002F096F90546FF2384F8333084F83630CB
:105630009DF9103084F837300A4BA363012384F8B6
:105640003C30059BA3644FF6FF72069BA286C4E91B
:105650000A562664A4F84460E364204670BD00BF87
:10566000DC930B00288F0B00F8B50446806A0D46CA
:1056700090B194F9301001F037F8A06A0368002166
:105680009B689847A06A036829469B689847A06A68
:10569000BDE8F84001F02FB894F93530014698B2D2
:1056A00002F0D5F8606A20B12946BDE8F84001F063
:1056B00093BB0826802794F9330005EA070180B2DE
:1056C00002F0C5F894F93400012180B202F0BFF86D
:1056D00094F93400002180B202F0B9F8013E4FEA9B
:1056E0005707E8D1F8BD38B50446806A0D4680B149
:1056F000A16C00F0EBFF002D204614BFA721A621CE
:10570000FFF7B2FFA06A88B1E16CBDE8384000F055
:10571000DDBF606A18B104F1380101F0EFFA94F9C5
:105720003600002180B202F092F8E4E794F93600E6
:10573000012180B202F08BF8606A18B1BDE83840F0
:1057400001F0C2BA38BD2DE9F8430446806A0D461F
:105750008F1840B394F9301000F0C6FFA06A0368B8
:1057600000219B6898470126AF42A06A17D01F2EE0
:105770000CD900F0C0FF94F93010A06A00F0B4FF1B
:10578000A06A036800219B6898470126A06A15F863
:10579000011B036801369B689847F6B2E4E7BDE851
:1057A000F84300F0A8BF94F93530014698B202F0F2
:1057B0004EF8BD4222D0606A15F8019B18B14946E7
:1057C00001F00AFBF5E708264FF0800894F9330052
:1057D00009EA080180B202F03AF894F93400012194
:1057E00080B202F034F894F93400002180B202F063
:1057F0002EF8013E4FEA5808E8D1DAE7BDE8F88311
:10580000B0F90A30DA1D48BF03F10E02B0F90830D2
:10581000C06AD2105A43002102F0E2BE2DE9FF41D6
:105820001E46C36A9DF8288004460F461546C3B13C
:105830002046FFF7E5FFB4F90A00B4F90810202864
:1058400021DC202301222038CDE9013200EBD07089
:1058500073237339009301EBD171894B40F34F02ED
:1058600021E0B0F90A30D81D48BF03F10E00B4F9A9
:105870000830C010584300F069FEE0620028D7D11C
:1058800004B0BDE8F0814038C0F3C03202FA80F2C3
:1058900040230120CDE90130522352390093794B46
:1058A00001EBD1715210204641F34F01FFF7ACFBE1
:1058B000A06A84F83170002878D0002D74D1B4F932
:1058C0000A30202B0CBF3C253D2584F83050B8F120
:1058D000000F01D000F0FEFEFEB194F93700002861
:1058E0001BDB012180B201F0A1FF94F937000121F7
:1058F00080B201F0ACFF012000F060FE94F93700A7
:10590000002180B201F0A3FF0A2000F057FE94F9B5
:105910003700012180B201F09AFFA06A002874D0FC
:10592000A16C00F0D3FE042257492046FFF70BFF7D
:1059300061890139C9B22046FFF796FE5349042216
:105940002046FFF700FF94F93130012B0CBF1021E6
:1059500014212046FFF788FE04224D492046FFF718
:10596000F2FEA3684B4A93425CD14B490422204685
:10597000FFF7E9FED9212046FFF776FE94F9313092
:10598000012B0CBF2221F1212046FFF76DFE20469E
:1059900042490622FFF7D7FEA06A002863D0E16CD7
:1059A00000F094FE01206BE76DB28EE794F93500AC
:1059B000012180B201F03AFF94F93600012180B252
:1059C00001F034FF94F93600012180B201F03FFF6D
:1059D000656A3DB1B8F1000F3FF47EAF284601F093
:1059E0005FF979E794F93300012180B201F01EFFDD
:1059F00094F93400012180B201F018FF94F93400C9
:105A0000294680B201F023FF66E7606A18B104F10D
:105A1000380101F073F994F93600002180B201F0E9
:105A200016FF80E71E4A93420ED11E4903222046EC
:105A3000FFF789FE94F93130012B0CBF9F21CF2154
:105A40002046FFF711FE95E7174A934292D1174976
:105A500003222046FFF777FE94F93130012B0CBF6B
:105A60001021AF21ECE794F93600012180B201F05A
:105A7000EEFE606A002895D001F026F992E700BF9B
:105A8000F4910B00348F0B003C940B0040940B00FE
:105A900044940B00800020004E940B0048940B00AF
:105AA0008000400052940B006000100055940B00E1
:105AB00070B5002ABDF810503DDBB0F90A409442A1
:105AC00039DD0029BEBF5B181BB20021B0F90840C8
:105AD000CE18A642C4BF631A1BB2002B2BDDC06ACE
:105AE000D61014FB0611014402F007000122824087
:105AF000012DD2B216D0022D0BD0E5B9D243D2B2CD
:105B00000B44994217D011F8010B104001F8010C19
:105B1000F7E70B4499420ED011F8010B504001F801
:105B2000010CF7E70B44994205D011F8010B104323
:105B300001F8010CF7E770BDF0B50029BDF814506D
:105B400076DBB0F90860B14272DA002ABEBF9B185A
:105B50001BB20022B0F90A40D718A742C4BFA31A4B
:105B60001BB2002B64DDC2F3C404C76A16FB041623
:105B700012F00702DBB207EB060423D0C2F10802E1
:105B8000D2B22D4993423CBF4FF0FF0CA2EB030E63
:105B9000895C3CBF4CFA0EFC0CEA0101012D07D0D8
:105BA000022D2ED04DB917F806C02CEA010103E0F2
:105BB00017F806C041EA0C01B955934238D3B0F941
:105BC00008100C449A1AD2B2072A0ED9022D1DD100
:105BD00013462178C9432170083BB0F90810DBB2A5
:105BE000072B0C44F5D802F007020AB3134B012D22
:105BF0009B5C1AD0022D1CD0D5B9227822EA03036F
:105C000015E017F806C081EA0C01D5E7291E18BF78
:105C100001214942C9B213462170083BB0F908601E
:105C2000DBB2072B3444F7D8DDE722781343237027
:105C3000F0BD22785340FAE72C940B0034940B000B
:105C400070B41446827EBDF80C60022A0DD0032A7F
:105C500018D0012A11D10289E443144424B20396D6
:105C60000A46214670BCFFF767BF42890589E443B5
:105C700019441444691A24B209B20396224670BC2E
:105C8000FFF716BF45891944691A09B2E7E730B42E
:105C90001446827EBDF80850022A0DD0032A18D07F
:105CA000012A11D1E2180489A41A24B202950A46E5
:105CB000214630BCFFF7FCBE0289C9431144E218FB
:105CC0004489A41A09B224B20295224630BCFFF7D7
:105CD00033BF4289C943114409B2E7E72DE9F843CC
:105CE0000446806A002842D0A16C00F0EFFC4749CE
:105CF00005222046FFF727FD218901392046C9B238
:105D0000FFF7B2FCB4F90A30DE1D48BF03F10E06FE
:105D1000D4E90A052389F61013FB06F615FA86F670
:105D200000283AD094F9301000F0DEFCA06A036835
:105D300040219B6898470127B542A06A24D01F2FB5
:105D40000CD900F0D8FC94F93010A06A00F0CCFC1B
:105D5000A06A036840219B6898470127A06A15F84C
:105D6000011B036801379B689847FFB2E4E7606A4C
:105D700018B104F1380100F0C1FF94F93600002198
:105D800080B201F064FDB2E700F0B5FCA06A78B320
:105D9000E16CBDE8F84300F099BC94F935000121AD
:105DA00080B201F054FDAE42F0D0606A15F8019B5C
:105DB00018B1494601F010F8F5E708274FF08008C0
:105DC00094F9330009EA080180B201F040FD94F92A
:105DD0003400012180B201F03AFD94F93400002131
:105DE00080B201F034FD013F4FEA5808E8D1DAE70C
:105DF00094F93600012180B201F029FD606A18B1E2
:105E0000BDE8F84300F060BFBDE8F88358940B008C
:105E100000210A22C0E900127047002310B5044691
:105E2000C171837188B201F02BFD08B10323A37106
:105E300000F028F9206010BD38B50C460546114623
:105E4000A0B201F0F3FC21462846BDE83840FFF738
:105E5000E4BF38B50446C07901F012FDA5790038D9
:105E600025F0080318BF0120C5F340058542A37142
:105E70000AD000F007F9A379206083F00203A37130
:105E8000A079C0F3C00038BD00F0FCF82368C01A48
:105E9000A3889842F4D3A37903F00103AB42EFD077
:105EA00000F0F0F8A379206083F0010343F00803C9
:105EB000E5E7807900F00900A0F108035842584155
:105EC000704700F07BBB00F0DDB87047704770474B
:105ED00003065ABF024B53F820000020704700BF52
:105EE00060940B0003065ABF024B53F820000020B9
:105EF000704700BF60960B0010B5064B0360044668
:105F0000006D08B100F09EF82046FFF707FB204621
:105F100010BD00BF68980B0010B50446FFF7ECFFFA
:105F200020467021FEF7BBF8204610BD30B585B085
:105F300004460D4601F00CFD104A1149CDE901213E
:105F40004FF0FF3280210346009220462022FFF7C7
:105F50005DFB0C4B23600023C4E9143504F15800A9
:105F6000FFF756FF04F16000FFF752FF04F16800ED
:105F7000FFF74EFF204605B030BD00BF801A060077
:105F8000A086010068980B0013B50446503000F05D
:105F900051F8636DD90705D50222042104F1580098
:105FA000FFF74AFF636D9A0705D50022032104F12C
:105FB0006000FFF741FF636D5B0705D502221146C4
:105FC00004F16800FFF738FF012300933C2202210F
:105FD0002046FFF723FC02B010BD10B5436DD90772
:105FE000044602D55830FFF734FF636D9A0703D596
:105FF00004F16000FFF72DFF636D5B0705D504F129
:106000006800BDE81040FFF724BF10BD436D024695
:1060100013F0010003D002F15800FFF74ABF7047A8
:10602000436D024613F0020003D002F16000FFF757
:1060300040BF704708B5024B1B681B6B019308BD3E
:106040004802030008B5024B1B685B6B019308BD57
:106050004802030008B5024B1B685B6C019308BD46
:106060004802030008B5024B1B685B68019308BD3A
:106070001802030008B5024B1B68DB68019308BDDA
:106080001802030008B5024B1B685B69019308BD49
:106090001802030008B5024B1B685B68019308BD3A
:1060A0002C02030008B5024B1B689B68019308BDD6
:1060B0002C02030008B5024B1B68DB68019308BD86
:1060C0002C02030008B5024B1B681B69019308BD35
:1060D0002C02030008B5024B1B685B69019308BDE5
:1060E0002C02030008B5024B1B689B6A019308BD94
:1060F0002C02030008B5024B1B681B6B019308BD03
:106100002C02030008B5024B1B689B6F019308BD6E
:106110002C02030008B5024B1B681B68019308BDE5
:106120002802030008B5024B1B68DB68019308BD19
:106130002802030008B5024B1B689B69019308BD48
:106140002802030008B5024B1B68DB69019308BDF8
:106150002802030008B5024B1B681B6A019308BDA7
:106160002802030008B5024B1B685B6A019308BD57
:106170002802030008B5024B1B689B6A019308BD07
:106180002802030008B5024B1B68DB6A019308BDB7
:106190002802030008B5024B1B681B6B019308BD66
:1061A0002802030008B5024B1B685B6B019308BD16
:1061B0002802030008B5024B1B681B6C019308BD45
:1061C0002802030008B5024B1B685B69019308BDF8
:1061D0006C02030008B5024B1B685B69019308BDA4
:1061E0006402030008B5024B1B681B6A019308BDDB
:1061F0006402030008B5024B1B689B6A019308BD4B
:106200006402030008B5024B1B689B68019308BD3C
:106210006802030008B5024B1B68DB68019308BDE8
:106220006802030008B5024B1B689B69019308BD17
:106230003802030008B5024B1B68DB69019308BDF7
:106240003802030008B5024B1B681B6A019308BDA6
:106250003802030008B5024B1B689B6A019308BD16
:106260003802030008B5024B1B681B6B019308BD85
:106270003802030008B5024B1B689B6B019308BDF5
:106280003802030008B5024B1B681B68019308BD68
:106290003002030008B5024B1B685B69019308BD1F
:1062A0003002030008B5024B1B68DB69019308BD8F
:1062B0003002030008B5024B1B681B6A019308BD3E
:1062C0003002030008B5024B1B685B6A019308BDEE
:1062D0003002030008B5024B1B68DB6B019308BD5D
:1062E0003002030008B5024B1B681B6C019308BD0C
:1062F0003002030008B5024B1B685B6C019308BDBC
:106300003002030008B5024B1B68DB68019308BD2F
:106310003C02030008B5024B1B681B69019308BDD2
:106320003C02030008B5024B1B685B69019308BD82
:106330003C02030008B5024B1B689B69019308BD32
:106340003C02030008B5024B1B68DB69019308BDE2
:106350003C02030008B5024B1B681B6A019308BD91
:106360003C02030008B5024B1B689B6A019308BD01
:106370003C02030008B5024B1B681B6C019308BD6F
:106380003C02030008B5024B1B681B68019308BD63
:106390004C02030008B5024B1B685B68019308BD03
:1063A0004C02030008B5024B1B681B69019308BD32
:1063B0004C02030008B5024B1B685B69019308BDE2
:1063C0004C02030008B5024B1B689B69019308BD92
:1063D0004C02030008B5024B1B68DB69019308BD42
:1063E0004C02030008B5024B1B681B6A019308BDF1
:1063F0004C02030008B5024B1B685B6B019308BDA0
:106400006002030008B5024B1B681B6D019308BDB9
:106410006002030008B5024B1B685B68019308BD6E
:106420002002030008B5024B1B685B69019308BD9D
:106430002002030008B5024B1B68DB6A019308BD0C
:106440002002030008B5034B1B68D3F88830019382
:1064500008BD00002002030008B5034B1B68D3F8F9
:106460009430019308BD00002002030008B5024BE0
:106470001B689B68019308BD4402030008B5024BEA
:106480001B68DB6B019308BD4402030008B5024B97
:106490001B685B68019308BD4002030008B5024B0E
:1064A0001B689B68019308BD4002030008B5024BBE
:1064B0001B68DB68019308BD4002030008B5024B6E
:1064C0001B681B69019308BD4002030008B5024B1D
:1064D0001B685B69019308BD4002030008B5024BCD
:1064E0001B689B69019308BD4002030008B5024B7D
:1064F0001B68DB69019308BD4002030008B5024B2D
:106500001B681B6A019308BD4002030008B5024BDB
:106510001B681B6B019308BD4002030008B5024BCA
:106520001B685B6B019308BD4002030008B5024B7A
:106530001B681B6C019308BD4002030008B5024BA9
:106540001B685B6C019308BD4002030008B5024B59
:106550001B681B68019308BD1C02030008B5024BB1
:106560001B685B68019308BD1C02030008B5024B61
:106570001B68DB69019308BD1C02030008B5024BD0
:106580001B685B6A019308BD1C02030008B5024B3F
:106590001B68DB6B019308BD1C02030008B5024BAE
:1065A0001B681B6C019308BD1C02030008B5024B5D
:1065B0001B685B6C019308BD1C0203000021FFF700
:1065C00031BF0000024800230360FFF743BD00BF56
:1065D000C4E60320002240681146FFF78FBF002267
:1065E00040681146FFF79ABF40680022FFF78EBF50
:1065F0004068002281F00101FFF778BF0023406866
:106600001A461946FFF76ABF002340681A46194622
:10661000FFF75CBF002240681146FFF74FBF002222
:1066200040681146FFF73ABF406800220221FFF799
:106630003DBF002340681A46FFF728BF024B0322E4
:106640005A60024A1A607047C8E60320C8980B00D7
:106650007047F8B5064615460C468F18BC4206D062
:10666000336814F8011B9B6830469847F6E72846C4
:10667000F8BD007C0022FFF76DBD007C0021FFF714
:1066800071BD007C0021FFF775BD007C0021FFF784
:1066900079BD007C0021FFF77DBD10B514210446B3
:1066A000FDF7FDFC204610BD10B54FF47A7304468B
:1066B00008460021C4E90113034B236020741146EE
:1066C000FFF778FD204610BD04990B00007C0022E6
:1066D000FFF720BD0023007C1A461946FFF722BDB4
:1066E000007C0022FFF726BDC9B2FFF7F9BF007C8E
:1066F0000022FFF727BD0121FFF7F9BF704710B552
:1067000018210446FDF7CBFC204610BDF0B5037DF3
:10671000062B8DB00E4600F104074FF0000412D096
:1067200000F1080515F8011D0A22304600F07FF936
:10673000AF42044419D0002CF4D02E21304600F092
:106740005DF90444EEE72F236A4639460A208DF8A6
:106750000040FFF73FFD684601F082FF33680246C4
:10676000DB68694630469847044620460DB0F0BDC8
:1067700010B5054B0446112240F8043B002101F0FE
:106780002FFF204610BD00BF2C990B000346074A7F
:1067900010B543F8042B01F1100251F8044B43F8F3
:1067A000044B9142F9D10A781A7010BD2C990B0054
:1067B000037D042B04D14068003818BF01207047C6
:1067C000062B07D143683BB983682BB9C3681BB953
:1067D0000069F1E7002070470120704710B59DF86F
:1067E000084044EA032343EA024242EA01610423E7
:1067F0004160037510BD000013B5044C04609DF8A2
:1068000010400094FFF7EAFF02B010BD2C990B0076
:1068100007B5064B0360CB7800938B784A780978EC
:10682000FFF7DCFF03B05DF804FB00BF2C990B0001
:10683000014B024A1A607047D0E6032038990B00DA
:10684000002340681A46FFF721BE4068002202215B
:10685000FFF72CBE002240681146FFF71FBE002242
:1068600040681146FFF72ABE002340681A461946C1
:10687000FFF72CBE002340681A461946FFF72EBECC
:1068800040680021FFF752BE40680021FFF756BE66
:106890004068002281F00101FFF728BE4068002215
:1068A000FFF734BE002240681146FFF737BE0022D2
:1068B00040681146FFF722BE2DE9F04395B014461B
:1068C0000D460746FFF754FF00211C220DA800913A
:1068D00001F086FE40230C9320466B460CAA002153
:1068E000FFF798FC044600284BD102460121686856
:1068F000FFF7E4FD0221804622466868FFF7DEFDCF
:10690000009E81462146002E3BD0002939D1736874
:10691000022B03D00A2B11D0F669F4E7B8F1000F6F
:10692000FAD0716906A8043107ADFFF771FF0FCDEA
:106930003C1D0FC42B6823704146EDE7B9F1000FF1
:10694000EAD07469102201A801F04AFE06238DF8EE
:10695000143001AD04F108031834186859682A4648
:1069600003C20833A3421546F7D101A906A807AD13
:10697000FFF70CFF0FCD3C1D0FC42B682370494659
:10698000CAE70098FFF73EFC384615B0BDE8F08333
:10699000024B034A1A6000225A607047D4E6032073
:1069A00044990B00F8B506460D468F180024BD42E9
:1069B0000CD0336815F8011B9B6830469847031EBE
:1069C00001DB1C44F3E7002C08BF1C462046F8BD41
:1069D00013B50446084659B1019101F041FE236800
:1069E0000199DB680246204602B0BDE81040184716
:1069F00002B010BD08B5FFF7EBFF08BD03689B6848
:106A0000184738B50D210546FFF7F8FF0A2104465F
:106A10002846FFF7F3FF204438BD38B50546FFF799
:106A2000D7FF04462846FFF7ECFF204438BD30B5B9
:106A30008BB00023012A8DF8243098BF0A2209ACBC
:106A40000D46B1FBF2F101FB125303F0FF03092BDA
:106A500094BF30333733DBB2AA4204F8013DEFD99B
:106A60002146FFF7B5FF0BB030BD00002DE9F74F11
:106A700055EC104B06460F4610EE102A10EE100A89
:106A80002B46294601F032FD40B153493046FFF70D
:106A90009FFF8246504603B0BDE8F08F25F00049C5
:106AA0004E4B4FF0FF322046494601F01FFD48B9DA
:106AB0004A4B4FF0FF322046494601F0F9FC08B935
:106AC0004749E3E7474B4FF060422046294601F033
:106AD00003FD08B14449D9E7444B4FF060422046DA
:106AE000294601F0DBFC0028F4D1002200232046D7
:106AF000294601F0D3FCD0B12D213046FFF77EFFAF
:106B000005F1004382461D463949DFF8EC904FF00D
:106B1000000B00204FF000085FFA8BF39F4208D96A
:106B200042464B4601F072FB0BF1010BF4E7824643
:106B3000EAE722462B4601F089F80D46044601F0AB
:106B400013FD804601F0BEF902460B462046294659
:106B500001F07AF80A2204460D4630464146FFF716
:106B600066FF8244002F95D02249DFF88C90304692
:106B7000FFF72EFF4FF000088244002F8AD04246D4
:106B80004B462046294601F017FA04460D4601F00F
:106B9000C3FCB0F1000B1CDA2D213046FFF72EFFAD
:106BA000CBF1000103460A2230460193FFF73FFF75
:106BB000019B18448244584601F094F902460B4662
:106BC0002046294601F040F8013F04460D46FFB239
:106BD000D3E759460023E6E778990B00FFFFEF7FE4
:106BE0007C990B00FFFFEF4180990B00FFFFEFC185
:106BF0000000E03F84990B000000244038B5C9B282
:106C00000546FFF733FF04462846FFF7FAFE204407
:106C100038BD2DE9F04186B000AF05460E46381D5F
:106C2000142114463B60FFF7A9FC13280ED8391D28
:106C30002846FFF7CDFE04461EB12846FFF7E1FEC9
:106C4000044420461837BD46BDE8F08100F1080332
:106C500023F00703E846ADEB030D2246411C3B68D9
:106C60006846FFF78BFC69462846FFF7B1FE0446ED
:106C7000C546E1E7014B00229A607047DCE603203D
:106C80000021FFF737BB0021FFF72CBB10B50446EE
:106C900008462170FFF706FB00236360204610BD05
:106CA00013B504460078FFF7EEFF58B9207801903D
:106CB0004FF6FF71FFF7E6FA019802B0BDE8104009
:106CC000FFF7DEBF02B010BD0078FFF7D9BF0000AC
:106CD000400830B51860002418688842E5B206D92B
:106CE0000134082C02D040081860F5E70725024B54
:106CF0005B5D137030BD00BF86990B002DE9F0433A
:106D000006468FB000780C46FFF7BDFF00281BDB5E
:106D100035781422002109A801F062FC0B2300221F
:106D200009A92846ADF82430FFF7CCFA9DF82D309C
:106D300013B19DF82C5055B10027B946B84601252E
:106D400023795DB1C3B100200FB0BDE8F083DDF859
:106D500030809DF834909DF83570F1E7002B35D1E7
:106D6000A368434508D18DF820908DF82170BDF8B7
:106D70002020A3899A42E6D00023A1688DF80F3025
:106D80000A9804AB0DF10F02FFF7A2FF217985B934
:106D900089B9A36843450ED38DF820908DF82170F2
:106DA000BDF82020A3899A4205D1049B434502D116
:106DB000C9E70029F9D100230193637B00939DF873
:106DC0000F20237B3078FFF785FABCE7CDE900552B
:106DD0002B462A460121F5E708B50078FFF75AFA55
:106DE000C0B208BD10B50446FFF74CF9E060236857
:106DF00020465B699847002808DAFFF743F9E36803
:106E0000C01AA3689842F2D34FF0FF3010BD2DE9AD
:106E1000F04107460C468E180D46B542A5EB040816
:106E200007D03846FFF7DEFF031E02DB05F8013B03
:106E3000F3E74046BDE8F081054B02221A60054B9E
:106E4000054A9A600020C3E90000FFF7E3BA00BFDB
:106E5000F8E60320ECE603200000FFFF13B503680B
:106E60008DF80710DC6B01224FF0FF330DF10701A5
:106E7000A04702B010BD10B40368DC6B4FF0FF33C5
:106E8000A4465DF8044B604713B5134602688DF8BD
:106E90000710D46B0DF107010122A04702B010BD0D
:106EA00010B54369B3F88620B3F884309A4204469B
:106EB00008D06369B3F88420511CA3F884101344EC
:106EC000187910BD03681B6998470028F1D14FF06D
:106ED000FF30F6E7704743691868C043C00F70473A
:106EE00070470000064B994210B500F10C0405D024
:106EF000084600F093FD002808BF0024204610BD7E
:106F0000B8980B0010B5AC210446FDF7C8F8204630
:106F100010BDAC21FDF7C3B82DE9F0414FF00008DA
:106F200086B01C46C0F8048005460E46174641460A
:106F3000102202A801F054FB631C09D04FF47A73AD
:106F4000B4FBF3F203FB1244CDE902285C43049442
:106F5000686910230093006802AB41F2050240F615
:106F6000FF71FFF75FF9002807DAFFF70FFB0368EF
:106F70006B60002006B0BDE8F081686900230068FE
:106F80003A463146FFF76EF9031EEEDB1846F1E78D
:106F900038B584690A4B036005467CB16368013BE0
:106FA00063605BB9236820469B689847A368013BF0
:106FB000A3601BB923682046DB689847284638BD84
:106FC000CC990B0010B50446FFF7E2FF20461C21C8
:106FD000FDF765F8204610BD30B587B0044601AD19
:106FE0006846FFF715FC0FCD04340FC42B682370DF
:106FF00007B030BD70B54D69054B04468C3544F87B
:10700000043B06460FCD0FC42B682370304670BD7D
:107010002C990B002DE9F0439846036893B00D4678
:107020000024DB6A06461746984728466B462246E8
:1070300021460094FFF7EEF80546002863D1009B37
:10704000002B4BD05B69002B48D006A8FFF790FBC4
:10705000009B5C696378022B04D1211D06A8FFF711
:10706000BBFF26E00A2B24D11122294601A801F0FA
:10707000B7FAA368002B38D004F108030DF1040C13
:10708000183418685968624603C20833A34294460C
:10709000F7D1062301A90CA88DF81430FFF776FB71
:1070A0000DF1340CBCE80F0007AC0FC4DCF8003065
:1070B000237006A8FFF77CFB80B1336807ADD3F8D7
:1070C0002090124B0C930FCD0DAC0FC42B68237086
:1070D0003A4643460CA93046C84705460098FFF794
:1070E00091F8284613B0BDE8F083E368002BC3D1C4
:1070F0004FF6FF70D4F81090FFF774F88145BBD1BC
:1071000004F11401AAE72546E8E700BF2C990B001B
:1071100038B543691A68002A054610DAB3F88620A4
:10712000B3F884309A420AD103681B699847044631
:1071300028B92B682846DB6A9847204638BD0120CD
:10714000FCE710B54369B3F88620B3F884309A425F
:10715000044605D06369B3F884201344187910BD40
:1071600003681B6998470028F4D14FF0FF30F6E719
:10717000F8B543691746B3F88620B3F884309A42CD
:1071800005460E4616D06969B1F88430B1F88640DC
:10719000E41ABC4228BF3C46043322461944304618
:1071A00001F010FA6A69B2F884302344A2F88430FE
:1071B0002046F8BD03681B6998470028E3D14FF0CB
:1071C000FF34F5E742690023A2F884304269A2F84F
:1071D000863070472DE9F0411F4603680C46DB6A94
:1071E0008AB0054616469847237DD5F81480042BAF
:1071F0000CBF02200A2006220121FFF73BF8C8F845
:1072000000006B691B68002B08DA2B682846DB6AD4
:107210000024984720460AB0BDE8F0812846FFF7D1
:10722000D1FFB7B1002303A9F8B20393ADF8103032
:10723000FEF7C8FF0028E8D16869062300930068BC
:1072400003AB41F20B0240F6FF71FEF7EBFF0028A3
:10725000DBD11C22002103A801F0C2F9237D042BFD
:107260001DD14FF407733046ADF80C30FEF7C2FF66
:10727000ADF80E006068FEF7B5FF04906B691C2244
:10728000186803A9FEF7DEFF0028BED104340FCC36
:107290006D698C350FC523682B700124BAE740F661
:1072A0001C233046ADF80C30FEF7A4FF05AEADF858
:1072B0000E00231D04F1140718685968324603C2F2
:1072C0000833BB421646F7D1D8E7000030B5426913
:1072D000B2F886308BB004462BB1B2F884209A42C3
:1072E00001D1FFF76FFF61690868002818DBB1F86A
:1072F00086507F2D14D804310823C5F1800229441B
:10730000FEF7A8FF002813DD6369B3F886200AB9E9
:10731000A3F884206369B3F886201044A3F886009C
:107320006369B3F88600B3F88430C01A0BB030BD7F
:10733000FFF72CF903680B2BF2D0FFF727F903684E
:107340000B2BEDD020230025CDE90235FFF71EF9E8
:1073500003680193084B0949009302AA2B46322087
:10736000FFF750F863691868FEF764FF63694FF030
:10737000FF321A60D4E700BF95990B008E990B007D
:1073800010B5436904461868002801DBFEF752FF78
:1073900063694FF0FF321A606069112200218C305E
:1073A00001F01EF92046BDE81040FFF70BBF10B5F5
:1073B000002304460160C0F884308830FFF7D8F914
:1073C000204610BD73B500234FF47A72C0E9013234
:1073D0000E4A0361026043610446AC200191FCF750
:1073E0005AFE051E05F10C0608D00123C5E901333C
:1073F000074B01992B603046FFF7D9FF2046C4E9BF
:107400000565FFF7DFFE02B070BD00BFCC990B0031
:10741000B0990B0010B54FF0FF310446FFF7D2FFD3
:10742000204610BD10B504460068002801DBFEF7B9
:1074300001FF204610BD0C30FFF7F4BF024B1A6865
:10744000024B1A60704700BF7CE50320FCE6032076
:1074500070474174704708B5007CFEF783FF20EA4F
:10746000E07008BD08B5007CFEF754FF20EAE0702C
:1074700008BD08B5007CFEF75DFF40EAE07008BD7E
:1074800008B5007CFEF74EFF40EAE07008BD007CC6
:10749000FEF758BF37B5457C04462DB1207C03B0BC
:1074A000BDE83040FEF72EBF007C0191FEF75AFF89
:1074B00000280199F2DC284603B030BD10B5142134
:1074C0000446FCF7ECFD204610BD000010B54FF45B
:1074D0007A730446084611460022C4E90123044B8E
:1074E0002360012320746374FEF744FF204610BD1F
:1074F000349A0B00417470477047704708B50021FB
:10750000007CFEF75FFF40EAE07008BD08B501218E
:10751000007CFEF757FF40EAE07008BD08B5007C2C
:10752000FEF748FF20EAE07008BD08B5007CFEF7D2
:1075300039FF20EAE07008BD13B50446007C0191D4
:10754000FEF738FF0028019901DC607C20B1207C27
:10755000FEF740FF20EAE07002B010BD007CFEF7AD
:1075600041BF10B514210446FCF799FD204610BD1B
:1075700010B54FF47A73044608460021C4E901139C
:10758000044B23600123207463741146FEF7FAFE56
:10759000204610BD649A0B00007C0022FEF7FABE64
:1075A00010B514220446002101F01AF8204610BD3F
:1075B00010B50F4C88B003A8FFF7F2FF2178BFF396
:1075C0005B8F11F001010FD120460191FCF776FD90
:1075D000019948B103AA0748FFF7CAFF2046FCF704
:1075E00072FD054800F0E0FF024808B010BD00BF82
:1075F00000E7032004E70320F9740B000022406831
:107600001146FEF75BBF002240681146FEF776BFC9
:10761000002240681146FEF781BF40680022FEF755
:1076200075BF4068002281F00101FEF75FBF0023B3
:1076300040681A461946FEF751BF002340681A46B3
:107640001946FEF743BF002240681146FEF726BFE9
:10765000406800220221FEF729BF002340681A4635
:10766000FEF714BF024B04225A60024A1A607047A8
:1076700018E70320949A0B00014B1860704700BF75
:1076800080E5032008B50B4B43B1FFF791FF03687A
:107690001B699847002801DDAFF30080064B43B11A
:1076A00000F096F903681B699847002801DDAFF3E5
:1076B000008008BD000000000000000008B5FFF7D2
:1076C000E1FFFEF7DFFC014B186008BD28E703204F
:1076D0000548064A064908B5121A00F073FF054B23
:1076E000054A1A6008BD00BF00F4032004F403201B
:1076F000849D0B0000F403201E1C279A07B500236D
:1077000000931A466FF07701FEF7A6FE03B05DF80E
:1077100004FB000007B543880A2B08D0502B0BD17F
:10772000094B1B684BB103B05DF804EB1847FFF73A
:10773000E5FF03B05DF804FB002300931A466FF0E9
:107740007701FEF789FEF4E724E7032010B512481D
:107750000021FEF72BFF114B1A68114B9A42114B77
:107760000CBF012200221A7001D0FFF7B1FFFEF713
:1077700079FC044600F03CFF0B4B13B12046AFF3FD
:10778000008000210848FEF779FEBDE81040074858
:107790000021FEF757BE00BF79760B0000F40320EE
:1077A0001E1C279A20E703200000000015770B001D
:1077B000232813B502D9002002B010BDA0F10B039D
:1077C000022B1AD8174C2178BFF35B8F11F00101FF
:1077D0000BD120460191FCF771FC019928B11248A8
:1077E000FFF754FA2046FCF76EFC0F4B1878FEF7B3
:1077F00061FD0028DFD10120DEE7012809D800F073
:10780000A7F80021007CFEF7CDFC80F00100C0B29B
:10781000D2E709380128EED800F0DAF8007CFEF74C
:1078200099FDF2E7B8E60320BCE60320232838B52B
:1078300004460D460AD8FF2908D0FFF7B9FF28B142
:1078400029462046BDE83840FEF72CBC38BD38B587
:1078500004460D46FEF72EFCFF2810D0062804D85B
:107860004D2323FA00F0C30709D42046FFF7A0FFF9
:1078700028B129462046BDE83840FEF723BC38BD74
:1078800010B50446FEF716FC031FDBB2012B08D926
:107890002046FFF78DFF20B12046BDE81040FEF7DF
:1078A00019BC002010BD0D2810B504469CBF0E3435
:1078B000A4B22046FFF77CFF50B103212046FEF71B
:1078C000E9FB032804D12046BDE81040FEF712BCB6
:1078D000002010BD38B504460D46FFF769FFF0B132
:1078E00004212046FEF7D6FB042805D1A9B2204684
:1078F000BDE83840FEF7F6BB02212046FEF7CAFB82
:1079000002280CD12046FEF7D5FB012801D004281F
:1079100005D129462046BDE83840FEF7F3BB38BD07
:107920007047000038B520251423044603608560A5
:1079300005610649284600F06FF804496060284652
:1079400000F06AF8E060204638BD00BFC89A0B001E
:1079500030B50E4D2978BFF35B8F11F0010487B06D
:1079600011D12846FCF7AAFB68B101A8FFF7DAFF9E
:1079700001AA21460648FEF797FE2846FCF7A3FB1E
:10798000044800F011FE024807B030BD2CE7032088
:1079900030E7032021790B007047000038B504461A
:1079A00014252A46002100F01BFE258040250749AA
:1079B00025812846258200F02FF80449606028467A
:1079C00000F02AF8E060204638BD00BFC89A0B00DE
:1079D00030B50E4D2978BFF35B8F11F0010487B0ED
:1079E00011D12846FCF76AFB68B101A8FFF7D6FF62
:1079F00001AA21460648FFF769FD2846FCF763FB0C
:107A0000044800F0D1FD024807B030BD44E7032030
:107A100048E7032099790B00FCF73FBB014900F0D0
:107A2000F9B800BFE49A0B007FB500241023CDE91C
:107A30000234036815469E6912686B46CDE900441E
:107A4000B0479DF8043003F00603062B03BF009BEC
:107A50002B600120204604B070BD0098904214BFF6
:107A6000012006207047000010B5034B0360044658
:107A700000F0CDF8204610BD249B0B0010B5044645
:107A8000FFF7F2FF20460821FCF709FB204610BD56
:107A90002DE9F0411F46DDE90834DDF818809845EE
:107AA0000646154607D1079900F0B4F818B165717C
:107AB0000020BDE8F0813946304600F0ABF80028E0
:107AC000F6D00123C4F800802571A371F0E738B522
:107AD00015461C4600F09EF820B10823E3600623FB
:107AE0002560237138BD73B505460C4601921E46CC
:107AF00000F090F850B9032E08D82368019A5B690A
:107B00002946204602B0BDE87040184702B070BD5B
:107B100010B5034B03600446FFF7A6FF204610BDD7
:107B2000849B0B0010B50446FFF7F2FF20460C21A2
:107B3000FCF7B5FA204610BDF7B5089F97420546F9
:107B40000E4614460AD0A86802680897156A31469E
:107B50002246AC4603B0BDE8F040604719460193A9
:107B600000F058F8019B0028EDD0062003B0F0BDCE
:107B70002DE9F14F0D461946DDE90A4BDDE90CA66A
:107B800081461746984600F045F890B1002D3460C4
:107B9000377109DB61198A450CBF06210121B171DA
:107BA000002001B0BDE8F08F0235F9D10123B37197
:107BB000F6E7544506D15946484600F02BF808B17F
:107BC0007771EDE7D9F808000368CDE90CA6CDE997
:107BD0000A4BDC693A4643462946A44601B0BDE853
:107BE000F04F60472DE9F04107460C4615461E460A
:107BF000FFF76DFF48B9B86803689F692A463346A6
:107C00002146BC46BDE8F0416047BDE8F0817047C1
:107C100000207047814208B50ED0406803782A2BB7
:107C20000CD049680B782A2B08BF013100F00EFDFB
:107C3000B0FA80F0400908BD0120FCE70020FAE717
:107C400081F0004102E000BF83F0004330B54FEA0D
:107C500041044FEA430594EA050F08BF90EA020F7A
:107C60001FBF54EA000C55EA020C7FEA645C7FEA0D
:107C7000655C00F0E2804FEA5454D4EB5555B8BF30
:107C80006D420CDD2C4480EA020281EA030382EAA1
:107C9000000083EA010180EA020281EA0303362D33
:107CA00088BF30BD11F0004F4FEA01314FF4801C06
:107CB0004CEA113102D0404261EB410113F0004F18
:107CC0004FEA03334CEA133302D0524263EB4303CF
:107CD00094EA050F00F0A780A4F10104D5F1200E6D
:107CE0000DDB02FA0EFC22FA05F2801841F10001C8
:107CF00003FA0EF2801843FA05F359410EE0A5F19C
:107D000020050EF1200E012A03FA0EFC28BF4CF0CC
:107D1000020C43FA05F3C01851EBE37101F0004582
:107D200007D54FF0000EDCF1000C7EEB00006EEB8F
:107D30000101B1F5801F1BD3B1F5001F0CD3490819
:107D40005FEA30004FEA3C0C04F101044FEA445270
:107D500012F5800F80F09A80BCF1004F08BF5FEAF7
:107D6000500C50F1000041EB045141EA050130BDD7
:107D70005FEA4C0C404141EB0101013C28BFB1F5E9
:107D8000801FE9D291F0000F04BF01460020B1FA34
:107D900081F308BF2033A3F10B03B3F120020CDA07
:107DA0000C3208DD02F1140CC2F10C0201FA0CF0E5
:107DB00021FA02F10CE002F11402D8BFC2F1200C4A
:107DC00001FA02F120FA0CFCDCBF41EA0C01904000
:107DD000E41AA2BF01EB0451294330BD6FEA040449
:107DE0001F3C1CDA0C340EDC04F11404C4F1200234
:107DF00020FA04F001FA02F340EA030021FA04F346
:107E000045EA030130BDC4F10C04C4F1200220FA9C
:107E100002F001FA04F340EA0300294630BD21FADA
:107E200004F0294630BD94F0000F83F4801306BFA0
:107E300081F480110134013D4EE77FEA645C18BF94
:107E40007FEA655C29D094EA050F08BF90EA020F2B
:107E500005D054EA000C04BF1946104630BD91EA23
:107E6000030F1EBF0021002030BD5FEA545C05D126
:107E70004000494128BF41F0004130BD14F5800465
:107E80003CBF01F5801130BD01F0004545F0FE41D9
:107E900041F470014FF0000030BD7FEA645C1ABF0E
:107EA000194610467FEA655C1CBF0B46024650EA45
:107EB000013406BF52EA033591EA030F41F4002171
:107EC00030BD00BF90F0000F04BF0021704730B5F7
:107ED0004FF4806404F132044FF000054FF00001CC
:107EE00050E700BF90F0000F04BF0021704730B58D
:107EF0004FF4806404F1320410F0004548BF404262
:107F00004FF000013EE700BF42004FEAE2014FEAB6
:107F100031014FEA02701FBF12F07F4393F07F4F91
:107F200081F06051704732F07F4208BF704793F094
:107F30007F4F04BF41F40021704730B54FF46074A7
:107F400001F0004521F000411CE700BF50EA0102AA
:107F500008BF704730B54FF000050AE050EA010253
:107F600008BF704730B511F0004502D5404261EBC3
:107F700041014FF4806404F132045FEA915C3FF404
:107F8000D8AE4FF003025FEADC0C18BF03325FEAA1
:107F9000DC0C18BF033202EBDC02C2F1200300FA52
:107FA00003FC20FA02F001FA03FE40EA0E0021FA77
:107FB00002F11444BDE600BF70B54FF0FF0C4CF465
:107FC000E06C1CEA11541DBF1CEA135594EA0C0F17
:107FD00095EA0C0F00F0DEF82C4481EA030621EA52
:107FE0004C5123EA4C5350EA013518BF52EA03358D
:107FF00041F4801143F4801338D0A0FB02CE4FF03F
:108000000005E1FB02E506F00042E0FB03E54FF06E
:108010000006E1FB03569CF0000F18BF4EF0010E66
:10802000A4F1FF04B6F5007F64F5407404D25FEA62
:108030004E0E6D4146EB060642EAC62141EA555115
:108040004FEAC52040EA5E504FEACE2EB4F1FD0C57
:1080500088BFBCF5E06F1ED8BEF1004F08BF5FEAD5
:10806000500E50F1000041EB045170BD06F0004687
:1080700046EA010140EA020081EA0301B4EB5C0434
:10808000C2BFD4EB0C0541EA045170BD41F480112C
:108090004FF0000E013C00F3AB8014F1360FDEBF51
:1080A000002001F0004170BDC4F10004203C35DA2D
:1080B0000C341BDC04F11404C4F1200500FA05F3B0
:1080C00020FA04F001FA05F240EA020001F0004251
:1080D00021F0004110EBD37021FA04F642EB0601C7
:1080E0005EEA430E08BF20EAD37070BDC4F10C04F1
:1080F000C4F1200500FA04F320FA05F001FA04F2B5
:1081000040EA020001F0004110EBD37041F10001A0
:108110005EEA430E08BF20EAD37070BDC4F12005AB
:1081200000FA05F24EEA020E20FA04F301FA05F213
:1081300043EA020321FA04F001F0004121FA04F2BB
:1081400020EA020000EBD3705EEA430E08BF20EA8B
:10815000D37070BD94F0000F0FD101F000464000C5
:1081600041EB010111F4801F08BF013CF7D041EA47
:10817000060195F0000F18BF704703F0004652004B
:1081800043EB030313F4801F08BF013DF7D043EA1C
:108190000603704794EA0C0F0CEA135518BF95EAD2
:1081A0000C0F0CD050EA410618BF52EA4306D1D159
:1081B00081EA030101F000414FF0000070BD50EA78
:1081C000410606BF1046194652EA430619D094EA02
:1081D0000C0F02D150EA013613D195EA0C0F05D1EC
:1081E00052EA03361CBF104619460AD181EA030140
:1081F00001F0004141F0FE4141F470014FF00000F8
:1082000070BD41F0FE4141F4780170BD70B54FF092
:10821000FF0C4CF4E06C1CEA11541DBF1CEA135512
:1082200094EA0C0F95EA0C0F00F0A7F8A4EB0504F4
:1082300081EA030E52EA03354FEA013100F08880EB
:108240004FEA03334FF0805545EA131343EA1263B4
:108250004FEA022245EA111545EA10654FEA002669
:108260000EF000419D4208BF964244F1FD0404F522
:10827000407402D25B084FEA3202B61A65EB03057E
:108280005B084FEA32024FF480104FF4002CB6EB3B
:10829000020E75EB030E22BFB61A754640EA0C00BB
:1082A0005B084FEA3202B6EB020E75EB030E22BFFB
:1082B000B61A754640EA5C005B084FEA3202B6EB3C
:1082C000020E75EB030E22BFB61A754640EA9C00FB
:1082D0005B084FEA3202B6EB020E75EB030E22BFCB
:1082E000B61A754640EADC0055EA060E18D04FEA89
:1082F000051545EA16754FEA06164FEAC30343EA29
:1083000052734FEAC2025FEA1C1CC0D111F4801FF5
:108310000BD141EA00014FF000004FF0004CB6E7EE
:1083200011F4801F04BF01430020B4F1FD0C88BF8D
:10833000BCF5E06F3FF6AFAEB5EB030C04BFB6EB98
:10834000020C5FEA500C50F1000041EB045170BD8B
:108350000EF0004E4EEA113114EB5C04C2BFD4EBB8
:108360000C0541EA045170BD41F480114FF0000E3C
:10837000013C90E645EA060E8DE60CEA135594EAB8
:108380000C0F08BF95EA0C0F3FF43BAF94EA0C0FBB
:108390000AD150EA01347FF434AF95EA0C0F7FF430
:1083A00025AF104619462CE795EA0C0F06D152EA84
:1083B00003353FF4FDAE1046194622E750EA410668
:1083C00018BF52EA43067FF4C5AE50EA41047FF479
:1083D0000DAF52EA43057FF4EBAE12E74FF0FF3CDE
:1083E00006E000BF4FF0010C02E000BF4FF0010CAF
:1083F0004DF804CD4FEA410C7FEA6C5C4FEA430C28
:1084000018BF7FEA6C5C1BD001B050EA410C0CBF76
:1084100052EA430C91EA030F02BF90EA020F0020D8
:10842000704710F1000F91EA030F58BF994208BF3F
:1084300090422CBFD8176FEAE37040F001007047FC
:108440004FEA410C7FEA6C5C02D150EA013C07D153
:108450004FEA430C7FEA6C5CD6D152EA033CD3D09E
:108460005DF8040B704700BF8446104662468C4698
:108470001946634600E000BF01B5FFF7B7FF0028CB
:1084800048BF10F1000F01BD4DF808EDFFF7F4FFF4
:108490000CBF012000205DF808FB00BF4DF808ED7F
:1084A000FFF7EAFF34BF012000205DF808FB00BFA2
:1084B0004DF808EDFFF7E0FF94BF012000205DF8C4
:1084C00008FB00BF4DF808EDFFF7CEFF94BF012079
:1084D00000205DF808FB00BF4DF808EDFFF7C4FF72
:1084E00034BF012000205DF808FB00BF4FEA410CBB
:1084F0007FEA6C5C02D150EA013C0AD14FEA430C9E
:108500007FEA6C5C02D152EA033C02D14FF00000DA
:1085100070474FF0010070474FEA410212F5001218
:1085200015D211D56FF47873B3EB625212D94FEABA
:10853000C12343F0004343EA505311F0004F23FAA4
:1085400002F018BF404270474FF00000704750EAF9
:10855000013005D111F0004008BF6FF000407047B6
:108560004FF00000704700BF4A0011D212F5001210
:1085700011D20DD56FF47873B3EB62520ED44FEA7B
:10858000C12343F0004343EA505323FA02F07047FB
:108590004FF00000704750EA013002D14FF0FF3039
:1085A00070474FF000007047002301461A461846F6
:1085B00000F0FEB80A22002100F0F0B80A220021E3
:1085C00000F0ECB80A44914200F1FF3300D170474B
:1085D00010B511F8014B03F8014F9142F9D110BDCC
:1085E00002440346934200D1704703F8011BF9E7A8
:1085F00038B5104B1D68AB6B0446B3B91820FDF7B6
:10860000A5FF0246A86320B90B4B0C484221FDF799
:10861000C5FF0B490B4BC0E900130B4B83600B23C9
:10862000838100210120C2E90401AB6B00221C619F
:108630005A6138BD80E50320BD9B0B00D49B0B0025
:108640000E33CDAB34126DE6ECDE050010F8012BD5
:1086500011F8013B012A28BF9A42F7D0D01A70477F
:10866000034613F8012B002AFBD1181A0138704772
:1086700010B50139034632B111F8014F03F8014B2F
:10868000013A002CF7D11A440021934200D110BDC9
:1086900003F8011BF9E70000012B2DE9F04701D099
:1086A000242B06D9FDF772FF162303600020BDE8D6
:1086B000F087DFF8E4C00D462E4615F8014B14F89C
:1086C0000C7017F00807F7D12D2C32D12C78012728
:1086D000B51C002B5BD0102B09D1302C07D12C7886
:1086E00004F0DF04582C4DD16C781023023507F1CB
:1086F000004808F1FF384FF0000CB8FBF3F966466C
:1087000003FB198AA4F1300EBEF1090F16D8744686
:10871000A34224DDBCF1000F1EDBB1451CD301D107
:10872000A24519DB06FB03464FF0010C15F8014B7F
:10873000E8E72B2C04BF2C78B51CCAE7A4F1410E46
:10874000BEF1190F01D8373CE2E7A4F1610EBEF18A
:10875000190F04D8573CDBE74FF0FF3CE6E7BCF1CC
:10876000000F05DA22230360464642B930469EE7F1
:1087700007B17642002AF9D0BCF1000F00D0691E83
:108780001160F3E73024002BB1D10823AFE7302C80
:10879000A5D00A23ABE700BF2E9C0B0013460A4668
:1087A000014602480068FFF777BF00BF80E503205D
:1087B0002DE9F843DFF8B8800646D8F800001F46D8
:1087C0000D46914600F056F8254B1C6834B9254CEF
:1087D0001C60254B13B11B68C4F8883063681F2BDD
:1087E00007DDD8F8000000F047F84FF0FF30BDE893
:1087F000F8834EB3D4F8880088B91C4B23B9D8F855
:10880000000000F038F8F0E74FF48470FDF79EFEAA
:108810000028F4D00023C0E94033C4F8880063681E
:1088200040F8239001229A4000EB8301D0F80031F8
:108830001343C0F80031022EC1F8807002BFD0F897
:1088400004311343C0F804316368D8F800005A1C9F
:108850000233626044F8235000F00EF80020C6E7AF
:10886000E8E703205CE70320000000004D650B00F3
:10887000E4E50320704770477047000021400B007B
:108880005D400B0085400B0089400B00000000009C
:1088900043616C6C206F6E20707572652076697212
:1088A0007475616C00256900256C6900696E006F44
:1088B00075740070776D00647700617700767700DB
:1088C00025322E376600507573682053656E74002C
:1088D0004141414141414141414141414141414188
:1088E0004141414141414141414141414141414178
:1088F0004141414141414141414141414141414168
:108900004141414141480067657639556C5748758A
:108910007053387943424A3277704458444E6D362A
:1089200054484D75306F5300626C6E6B696E660013
:1089300076657200312E312E3000682D62656174CB
:1089400000343500627566662D696E003130323450
:1089500000646576005061727469636C65204172D1
:10896000676F6E006275696C64004A756E203239FB
:1089700020323032322031343A34333A333300004B
:108980000000000000003E5B4F5B3E3E6B4F6B3EC5
:108990001C3E7C3E1C183C7E3C181C577D571C1C02
:1089A0005E7F5E1C00183C1800FFE7C3E7FF00185D
:1089B000241800FFE7DBE7FF30483A060E26297946
:1089C0002926407F050507407F05253F5A3CE73CA7
:1089D0005A7F3E1C1C08081C1C3E7F14227F221458
:1089E0005F5F005F5F06097F017F006689956A60AF
:1089F0006060606094A2FFA29408047E04081020C6
:108A00007E201008082A1C08081C2A08081E1010BE
:108A100010100C1E0C1E0C30383E3830060E3E0E68
:108A200006000000000000005F00000007000700D3
:108A3000147F147F14242A7F2A12231308646236B9
:108A4000495620500008070300001C224100004145
:108A5000221C002A1C7F1C2A08083E08080080707F
:108A600030000808080808000060600020100804B2
:108A7000023E5149453E00427F4000724949494605
:108A80002141494D331814127F1027454545393C83
:108A90004A49493141211109073649494936464970
:108AA00049291E0000140000004034000000081492
:108AB000224114141414140041221408020159090B
:108AC000063E415D594E7C1211127C7F4949493660
:108AD0003E414141227F4141413E7F494949417FD9
:108AE000090909013E414151737F0808087F00418F
:108AF0007F41002040413F017F081422417F4040D8
:108B000040407F021C027F7F0408107F3E414141AC
:108B10003E7F090909063E4151215E7F0919294618
:108B2000264949493203017F01033F4040403F1F2E
:108B30002040201F3F4038403F6314081463030463
:108B40007804036159494D43007F414141020408C3
:108B50001020004141417F04020102044040404096
:108B600040000307080020545478407F28444438CC
:108B70003844444428384444287F38545454180016
:108B8000087E090218A4A49C787F08040478004495
:108B90007D40002040403D007F1028440000417F80
:108BA00040007C047804787C080404783844444409
:108BB00038FC1824241818242418FC7C0804040801
:108BC000485454542404043F44243C4040207C1C1A
:108BD0002040201C3C4030403C44281028444C900D
:108BE00090907C4464544C44000836410000007767
:108BF0000000004136080002010204023C26232640
:108C00003C1EA1A161123A4040207A385454555973
:108C100021555579412254547842215554784020A9
:108C2000545579400C1E52721239555555593954C4
:108C300054545939555454580000457C410002455C
:108C40007D420001457C407D1211127DF0282528CF
:108C5000F07C545545002054547C547C0A097F49CB
:108C600032494949323A4444443A324A4848303A0F
:108C70004141217A3A42402078009DA0A07D3D42AA
:108C800042423D3D4040403D3C24FF2424487E4933
:108C900043662B2FFC2F2BFF0929F620C0887E0965
:108CA0000320545479410000447D413048484A3201
:108CB000384040227A007A0A0A727D0D19317D26E9
:108CC00029292F28262929292630484D40203808CF
:108CD00008080808080808382F10C8ACBA2F102850
:108CE00034FA00007B000008142A142222142A14EB
:108CF000085500550055AA55AA55AAFF55FF55FF1E
:108D0000000000FF00101010FF00141414FF0010EA
:108D100010FF00FF1010F010F0141414FC001414D5
:108D2000F700FF0000FF00FF1414F404FC141417F4
:108D3000101F10101F101F1414141F00101010F01B
:108D4000000000001F101010101F10101010F01065
:108D5000000000FF101010101010101010FF100075
:108D60000000FF140000FF00FF00001F10170000AC
:108D7000FC04F414141710171414F404F40000FF86
:108D800000F714141414141414F700F7141414171F
:108D90001410101F101F141414F4141010F010F0FD
:108DA00000001F101F0000001F14000000FC140032
:108DB00000F010F01010FF10FF141414FF14101026
:108DC000101F00000000F010FFFFFFFFFFF0F0F0A9
:108DD000F0F0FFFFFF0000000000FFFF0F0F0F0F7C
:108DE0000F3844443844FC4A4A4A347E020206069C
:108DF000027E027E0263554941633844443C04408C
:108E00007E201E2006027E020299A5E7A5991C2A53
:108E1000492A1C4C7201724C304A4D4D3030487812
:108E20004830BC625A463D3E494949007E01010135
:108E30007E2A2A2A2A2A44445F444440514A444014
:108E400040444A51400000FF0103E080FF00000859
:108E5000086B6B083612362436060F090F06000021
:108E600018180000001010003040FF0101001F0121
:108E7000011E00191D1712003C3C3C3C0000000084
:108E800000000000000000000000000000000000E2
:108E9000000000008D530B00A5690B00A5400B00DE
:108EA000934D0B00954D0B00C74D0B00A34D0B00D0
:108EB000B54D0B00D54C0B00934D0B00BF4F0B0075
:108EC000BD4F0B00DF4D0B001D4E0B00574E0B002E
:108ED0009D4E0B00B94E0B003D4F0B006465666163
:108EE000756C7420004D5342004C5342003C53506B
:108EF0004953657474696E67732064656661756C47
:108F0000743E003C53504953657474696E67732016
:108F100025732575202573204D4F444525753E004A
:108F20000000000000000000C9540B009B540B001F
:108F30009D540B00000000000001800000000000B4
:108F40000000000003800000000000000000000797
:108F5000C000000000000000000007C0000000008A
:108F600000000000000FC000000000000000000032
:108F70001FE00000000000000000001FE0000000F3
:108F80000000000000003FE00000000000000000C2
:108F9000003FF00000000000000000007FF0000033
:108FA00000000000001FF87FF0000000000000003B
:108FB0003FFE7FF0000000000000003FFF7FF00058
:108FC0000000000000001FFFFBE0000000000000A8
:108FD000000FFFF9FFC00000000000000FFFF9FFC5
:108FE000F800000000000007FFF1FFFF0000000094
:108FF000000003FC73FFFF80000000000001FE3F43
:10900000FFFF80000000000000FF1E0FFF000000B7
:10901000000000007FFE1FFC000000000000003F79
:10902000FFFFF8000000000000000FDFFFE000007D
:1090300000000000001F19FFC00000000000000039
:109040003F3CFF00000000000000007E7CF80000B4
:109050000000000000007FFE7C0000000000000017
:1090600000FFFFFC0000000000000000FFFFFE000A
:1090700000000000000000FFFFFE000000000000F4
:109080000001FFEFFE0000000000000001FFCFFE26
:109090000000000000000003FF07FE0000000000C9
:1090A000000003FC07FE0000000000000003F003C6
:1090B000FE00000000000000018000FE0000000033
:1090C0000000000000007E00000000000000000022
:1090D000003E000000000000000000000C00000046
:1090E000000000078000FC000003C00000000780B3
:1090F00001FC000003C0000000078001FC00000329
:10910000C0000000078001E00000001E0000000712
:109110008001E00000001E007FE3F79FF9FDE77883
:109120007BDFC0FFF7FFBFFDFDFF787BDFC0FFF7F0
:10913000FFBFFDFDFF787BDFC0F0F787BC3DE1FF9F
:10914000787BDE00F0F787BC3DE1F0787BDE000045
:10915000F787803DE1E0787BDE007FF7879FFDE1C8
:10916000E0787BDE00FFF787BFFDE1E0787BDE0083
:10917000F0F787BC3DE1E0787BDE00F0F787BC3D8F
:10918000E1E0787BDE00F0F787BC3DE1E0787BDE54
:1091900000FFF7FFBFFDE1E07FFBDFC0FFF7FFBF90
:1091A000FDE1E07FFBDFC07CF3F39F3DE1E03E7B30
:1091B000CFC00000000000000000000000FFFFFF23
:1091C000FFFFFFFFFFFFFFC0FFFFFFFFFD68DB1199
:1091D0001A31C0FFFFFFFFFD2B5AFB6AEFC0FFFFF4
:1091E000FFFFFD4B5B3B1A33C0FFFFFFFFFD6B5BD7
:1091F000DB6AFDC00000600000000000000000000D
:109200000000000000E0000000000000000000007E
:1092100000000001E000000000000000000000006D
:10922000000001F00000000000000000000000004D
:109230000003F0000000000000000000000000003B
:1092400007F0000000000000000000000000000720
:10925000F8000000000000000000000000000FF80F
:1092600000000003C0007E000001E0007F0FF80056
:10927000000003C000FE000001E000FFEFF8000066
:109280000003C000FE000001E000FFFFF800000046
:1092900003C000F00000000F007FFE7FC00000034D
:1092A000C000F00000000F003FFE7FF83FF1FBCF51
:1092B000FCFEF3BC3DEFE01FFE7FFF7FFBFFDFFE08
:1092C000FEFFBC3DEFE01FC6FFFF7FFBFFDFFEFEA2
:1092D000FFBC3DEFE00FE3C7FE787BC3DE1EF0FF6F
:1092E000BC3DEF0007FF87FC787BC3DE1EF0F83C37
:1092F0003DEF0001FFFFF0007BC3C01EF0F03C3DDE
:10930000EF0001F37FE03FFBC3CFFEF0F03C3DEF09
:109310000003E33F807FFBC3DFFEF0F03C3DEF0046
:1093200007E73C00787BC3DE1EF0F03C3DEF000712
:10933000FFBE00787BC3DE1EF0F03C3DEF0007FF70
:10934000FE00787BC3DE1EF0F03C3DEF000FFFFE19
:10935000007FFBFFDFFEF0F03FFDEFE00FFFFF00BF
:109360007FFBFFDFFEF0F03FFDEFE00FF9FF003E77
:1093700079F9CF9EF0F01F3DE7E01FF1FF000000FC
:109380000000000000000000001F80FF007FFFFFC2
:10939000FFFFFFFFFFFFFFE01C007F007FFFFFFFDD
:1093A000FEB46D888D18E000001F007FFFFFFFFEF8
:1093B00095AD7DB577E000000F007FFFFFFFFEA5B4
:1093C000AD9D8D19E0000006007FFFFFFFFEB5ADEB
:1093D000EDB57EE000000000000000001D550B0010
:1093E00035550B008D530B00A5690B0049550B003B
:1093F000934D0B00954D0B00C74D0B00A34D0B007B
:10940000B54D0B00D54C0B00934D0B00BF4F0B001F
:10941000E7560B008F5C0B00415C0B00574E0B00B6
:109420009D4E0B00B94E0B003D4F0B000080C0E07D
:10943000F0F8FCFE000103070F1F3F7FAED580A8A8
:10944000D300408D2000A1C8DB40A4A62EAFDA02D5
:10945000818FDA1281DA02812200FF2100000000F0
:10946000CB5E0B00CB5E0B00CB5E0B00CB5E0B002C
:10947000CB5E0B00CB5E0B00CB5E0B00CB5E0B001C
:10948000CB5E0B00CB5E0B00CB5E0B00CB5E0B000C
:10949000CB5E0B00CB5E0B00CB5E0B00CB5E0B00FC
:109860000000000000000000F95E0B00195F0B0013
:109870008D530B00A5690B0049550B00934D0B0050
:10988000954D0B00C74D0B00A34D0B00B54D0B00C4
:10989000D54C0B00934D0B00BF4F0B00E7560B0050
:1098A0008F5C0B00415C0B00574E0B009D4E0B0074
:1098B000B94E0B003D4F0B000000000000000000FF
:1098C000000000000000000033660B0029660B005A
:1098D0001F660B0015660B0009660B00FD650B008B
:1098E00081680B0089680B00F1650B00E9650B00CE
:1098F000DF650B00D5650B00B9680B0000000000A8
:109900000000000051660B009B660B0073660B00A5
:1099100053660B007B660B0083660B008B660B00A7
:1099200093660B0000000000000000000D670B00B4
:10993000FD660B00FF660B00617070000000000008
:109940000000000041680B004B680B0055680B00DD
:109950005F680B0069680B0075680B0081680B007D
:1099600089680B0091680B009D680B00A5680B00CF
:10997000AF680B00B9680B006E616E00696E66001F
:109980006F7666002E00000810182028303877699E
:1099900072696E670072656376206572726F7220FD
:1099A0003D202564000000000000000000000000D1
:1099B000E16E0B00056F0B0037740B00136F0B008B
:1099C000E56E0B000000000000000000916F0B002E
:1099D000C56F0B005D6E0B00776E0B00CD720B0038
:1099E000A16E0B0043710B00D56E0B00D5710B00FF
:1099F00015700B0071710B0081730B0011710B005E
:109A0000D76E0B00896E0B00196F0B00F56F0B0002
:109A100025592D256D2D25645425483A254D3A2587
:109A200053257A0061736374696D6500000000005E
:109A30000000000051740B00BD740B0095740B0006
:109A4000A5690B0065740B0081740B0073740B0027
:109A50008F740B0053740B0057740B000000000050
:109A600000000000FB740B0063750B0039750B00E0
:109A7000A5690B002B750B00FD740B000D750B0019
:109A80005D750B001D750B00F5740B0000000000E8
:109A9000000000005B760B0051760B0047760B0050
:109AA000FD750B003B760B002F760B0081680B00D9
:109AB00089680B0023760B001B760B0011760B00D8
:109AC00007760B00B9680B0000537431395F53708F
:109AD0005F6D616B655F7368617265645F74616718
:109AE00000000000249B0B00C99A0B00849B0B0014
:109AF000F89A0B00A89B0B004E31305F5F637878BB
:109B0000616269763131375F5F636C6173735F7473
:109B10007970655F696E666F4500000000000000A7
:109B2000EC9A0B00697A0B007D7A0B00117C0B001C
:109B3000117C0B00E77A0B00297A0B00CF7A0B001F
:109B4000917A0B005B7A0B00849B0B00549B0B00FB
:109B5000EC9A0B004E31305F5F6378786162697612
:109B60003132305F5F73695F636C6173735F747907
:109B700070655F696E666F450000000000000000C0
:109B8000489B0B00117B0B00257B0B00117C0B000D
:109B9000117C0B00E77A0B00297A0B00E57B0B00A8
:109BA000717B0B00397B0B00249B0B00B09B0B00DF
:109BB000537439747970655F696E666F00524545FC
:109BC0004E54206D616C6C6F6320737563636565C3
:109BD000646564002F746D702F6A656E6B696E73B7
:109BE0002D4743432D31302D706970656C696E656A
:109BF0002D34385F32303230313132345F313630EB
:109C0000363138303633392F7372632F6E65776C87
:109C100069622F6E65776C69622F6C6962632F735E
:109C200074646C69622F72616E642E630000202080
:109C300020202020202020282828282820202020FC
:109C400020202020202020202020202020208810BC
:109C5000101010101010101010101010101004041C
:109C60000404040404040404101010101010104123
:109C70004141414141010101010101010101010194
:109C80000101010101010101011010101010104229
:109C90004242424242020202020202020202020264
:109CA0000202020202020202021010101020000042
:109CB00000000000000000000000000000000000A4
:109CC0000000000000000000000000000000000094
:109CD0000000000000000000000000000000000084
:109CE0000000000000000000000000000000000074
:109CF0000000000000000000000000000000000064
:109D00000000000000000000000000000000000053
:109D10000000000000000000000000000000000043
:109D20000000000000000000000000000000000033
:109D30008D4C0B00C5650B003D660B0031680B00B8
:109D400091690B00756C0B00396E0B003D740B00B4
:109D500065760B000000000000000000000000001D
:109D6000040000001400000003000000474E5500EE
:109D70001962F3853368F0D03176969C76D94B79A9
:049D8000BD467EC49A
:049D840000000000DB
:109D8800249A0B0084E50320000000000000000076
:109D980000000000000000000000000000000000BB
:109DA80000000000000000000000000000000000AB
:109DB800000000000000000000000000000000009B
:109DC800000000000000000000000000000000008B
:109DD800000000000000000000000000000000007B
:0C9DE8000000000000000000ECE7032079
:109DF400FFFFFFFF00000102030405060708090A2C
:109E04000B0C0D0E0F101112131415161718191A26
:089E14001B1C1D1E1F2028006D
:049E1C00785634122E
:04000003B0004020E9
:00000001FF
